:020000041FFFDC
:10800000008000201183FF1F3D83FF1F3D83FF1F62
:108010003D83FF1F3D83FF1F3D83FF1F00000000C6
:108020000000000000000000000000006584FF1F49
:108030003D83FF1F000000001185FF1F6985FF1FA2
:108040003D83FF1F3D83FF1F3D83FF1F3D83FF1FB8
:108050003D83FF1F3D83FF1F3D83FF1F3D83FF1FA8
:108060003D83FF1F3D83FF1F3D83FF1F3D83FF1F98
:108070003D83FF1F3D83FF1F3D83FF1F3D83FF1F88
:108080003D83FF1F3D83FF1F3D83FF1F3D83FF1F78
:108090003D83FF1F3D83FF1F3D83FF1F3D83FF1F68
:1080A0003D83FF1F3D83FF1F3D83FF1F3D83FF1F58
:1080B0003D83FF1F3D83FF1F3D83FF1F3D83FF1F48
:1080C0003D83FF1F3D83FF1F3D83FF1F3D83FF1F38
:1080D0003D83FF1F3D83FF1F3D83FF1F3D83FF1F28
:1080E0003D83FF1F3D83FF1F3D83FF1F3D83FF1F18
:1080F0003D83FF1F3D83FF1F3D83FF1F3D83FF1F08
:108100003D83FF1F3D83FF1F3D83FF1F3D83FF1FF7
:108110003D83FF1F3D83FF1F3D83FF1F3D83FF1FE7
:108120003D83FF1F3D83FF1F3D83FF1F3D83FF1FD7
:108130003D83FF1F3D83FF1F3D83FF1F3D83FF1FC7
:108140003D83FF1F3D83FF1F3D83FF1F3D83FF1FB7
:108150003D83FF1F3D83FF1F3D83FF1F3D83FF1FA7
:108160003D83FF1F3D83FF1F3D83FF1F3D83FF1F97
:108170003D83FF1F3D83FF1F3D83FF1F3D83FF1F87
:108180003D83FF1F3D83FF1F3D83FF1F3D83FF1F77
:108190003D83FF1F3D83FF1F3D83FF1F3D83FF1F67
:1081A0003D83FF1F3D83FF1F3D83FF1F3D83FF1F57
:1081B0003D83FF1F3D83FF1F3D83FF1F3D83FF1F47
:1081C0003D83FF1F8989FF1F3D83FF1F3D83FF1FE5
:1081D0003D83FF1F3D83FF1F3D83FF1F3D83FF1F27
:1081E0003D83FF1F3D83FF1F3D83FF1F3D83FF1F17
:1081F0003D83FF1F3D83FF1F3D83FF1F3D83FF1F07
:108200003D83FF1F3D83FF1F3D83FF1F3D83FF1FF6
:108210003D83FF1F3D83FF1F3D83FF1F3D83FF1FE6
:108220003D83FF1F3D83FF1F3D83FF1F3D83FF1FD6
:108230003D83FF1F3D83FF1F3D83FF1F3D83FF1FC6
:1082400010B5054C237833B9044B13B10448AFF390
:1082500000800123237010BD1002002000000000E8
:1082600060E9FF1F084B10B51BB108490848AFF380
:1082700000800848036803B910BD074B002BFBD0F2
:10828000BDE81040184700BF0000000014020020A5
:1082900060E9FF1F0C02002000000000154B002BBE
:1082A00008BF134B9D46A3F5803A00218B460F462D
:1082B0001348144A121A03F096FE0F4B002B00D0FD
:1082C00098470E4B002B00D0984700200021040057
:1082D0000D000D48002802D00C48AFF3008003F0D9
:1082E00051FE2000290000F051FB03F025FE00BFE5
:1082F00000000800008000200000000000000000D6
:10830000100200200C5600200000000000000000B9
:1083100072B603F0FBF90649064A074B9A42BEBF04
:1083200051F8040B42F8040BF8E762B6FFF7B6FF0A
:1083300088E9FF1F0000002010020020FFF7FEBFA9
:1083400010F8012B11F8013B012A28BF9A42F7D0FF
:10835000D01A7047034613F8012B002AFBD1181AD4
:10836000013870470000000000000000000000001D
:1083700001F0FF01102A2BDB10F0070F08D010F8D6
:10838000013B013A8B422DD010F0070F42B3F6D1DA
:10839000F0B441EA012141EA014122F007047FF0F3
:1083A00000070023F0E80256083C85EA010586EA4A
:1083B000010685FA47F5A3FA87F586FA47F6A5FA86
:1083C00087F68EB9EED1F0BC01F0FF0102F0070292
:1083D00032B110F8013B013A83EA010313B1F8D13D
:1083E0000020704701387047002D06BF354603381E
:1083F000073815F0010F07D1013015F4807F02BF57
:10840000013015F4C03F0130F0BC0138704700BFA7
:1084100005480068006880F3088862B6BFF34F8F94
:10842000BFF36F8F00DF00BF08ED00E0DFF80C0046
:10843000016841F4700101607047000088ED00E0C0
:108440004FF0807300E90A00054B40F80C3C6FF0D8
:10845000020340F8202C40F8243C4438704700BF09
:10846000AD84FF1F064B19680868B0E8F04F80F331
:108470000988BFF36F8F4FF0000080F311887047B9
:10848000A8550020044B4FF080521A60BFF34F8F65
:10849000BFF36F8F704700BF04ED00E0EFF3118072
:1084A0004FF0100181F311887047002008B5054B8B
:1084B0001B68013302D0FFF7F1FFFEE7FFF7EEFF85
:1084C000FEE700BF0000002008B5FFF7E7FF044A01
:1084D000136801331360BFF34F8FBFF36F8F08BD75
:1084E0000000002080F311887047000008B5074B9A
:1084F000186810B9FFF7D2FFFEE70138186018B905
:10850000BDE80840FFF7EEBF08BD00BF0000002037
:10851000EFF30980BFF36F8F124B1A681EF0100F34
:1085200008BF20ED108A20E9F04F10604DF8043D9F
:108530004FF0100080F3118802F0DAFC4FF00000D9
:1085400080F3118808BC19680868B0E8F04F1EF085
:10855000100F08BFB0EC108A80F30988BFF36F8F4B
:10856000704700BFA855002008B5FFF797FF02F03D
:10857000A7FB18B1044B4FF080521A600020BDE8F1
:108580000840FFF7AFBF00BF04ED00E0034B044A13
:108590001A60072243F8042C704700BF14E000E083
:1085A0007FA9030013B5234B1A78D2B20192FF22A0
:1085B0001A701B78204ADBB28DF803309DF8033027
:1085C00003F0100313701D4B07221A6000219DF861
:1085D0000300000602F1FF3408D59DF80320520085
:1085E000D2B28DF8032001212246F0E701B11A60D2
:1085F0001A68120202F4E0621A60019B0D4ADBB2B3
:1086000013700F4B1A6842F470021A601A6842F035
:1086100070421A60FFF7BAFF0A4B00221A60FFF798
:1086200005FF094A136843F040431360FFF7F0FE6B
:10863000FFF73CFF00E400E02C02002030020020A5
:1086400020ED00E00000002034EF00E008B5EFF37B
:1086500005830F2B08D90A4A9B5C0A4A12789A4272
:1086600002D9FFF71BFFFEE7074B084A1B68126899
:1086700003F4E063934202D9FFF710FFFEE708BD61
:10868000F0E300E02C0200200CED00E030020020BE
:1086900070B5044602F00CFB2648016871B9264B00
:1086A000264A23F0070313605160254A44F6F87503
:1086B00082E8220083E82400012303602CB10834FF
:1086C00063071CBF24F007040834621E44F6F673E7
:1086D0009A422AD8194A136859688C4203D8184913
:1086E0008B4206D121E019680029F8D01A460B46C2
:1086F000F2E71968156811605968091B102905F11E
:1087000008050CD91A1951605C6056680B49086855
:108710004468A64201D90146F9E710600A60094998
:108720005B680A68D21A0A6000E0002502F056FB76
:10873000284670BD3C020020480200203402002080
:10874000405200200400002038B50446C8B1A0F112
:10875000080502F0ADFA54F8040C0A4B1A68516887
:10876000884201D91346F9E744F8082C064A1D60EF
:1087700054F8041C13680B441360BDE8384002F041
:108780002DBB38BD340200200400002008B5044889
:1087900002F074FD4FF4967002F086FBF7E700BF1D
:1087A00030DCFF1F30B58FB00EAB002043F82C0D2E
:1087B000012202A9029000F0B5FA18B15C4B5D4AA3
:1087C0007A2115E0039B5C485A6A196A5B4D02F0F6
:1087D00055FD4FF0FF330398009305AA06AB04A99B
:1087E000C06A00F0FDFA044628B1514B514A842179
:1087F000534803F083FB059AB2F5007F03D3514B36
:108800004C4A8721F4E704994C4803F0E1FB059AB0
:10881000022AAC5409D12B780D2B06D16B780A2B88
:1088200003D1494802F02AFD58E04449474802F084
:1088300025FD424B1B78212B02D03F2B20D045E059
:1088400043493E4808AB09AA03F0EAFE414909A89A
:10885000FFF776FD002868D1089A0620141C18BF7F
:10886000012400F0D9F93C4B99693C4B22465869E8
:1088700003F07EFA062000F0E3F909AB384A27E05E
:10888000384C39492D4809AA03F0CAFE204600F0A9
:108890008FF9364909A8FFF753FD08B963880CE042
:1088A000334909A8FFF74CFD08B9238905E0314990
:1088B00009A8FFF745FD88B9237800932E4A1F4881
:1088C00009AB4FF4007103F079FE06E02B4A09ABC7
:1088D0004FF40071194803F071FE0590039B07A93E
:1088E000D86A00F0B1FA044618B9254B114ABD21E7
:1088F0007EE7059A114903F06BFB0398069B059AE6
:10890000C06A214600F0ACFA18B1094B094AC221ED
:108910006EE7039B0499D86A00F086FA00283FF4BA
:1089200058AF034B034AC52162E709AB154ACFE7AD
:1089300052DCFF1F24DCFF1FC3DCFF1F545200204A
:108940005EDCFF1F0FDDFF1F24DDFF1F3FDDFF1F6C
:1089500070DDFF1F7BDDFF1F880100206C01002000
:1089600083DDFF1F485200208ADDFF1F8EDDFF1FC1
:1089700099DDFF1F9EDDFF1F92DDFF1FA5DDFF1F9D
:10898000B7DDFF1FBEDDFF1F00F0BCBA70B52C4D78
:108990008AB003F09DF800242A4B089328460794D8
:1089A000099403F01DF807A90790284603F034FA4C
:1089B0002B899BB243F080032B81234DAB69059338
:1089C0000126042306208DF819308DF8186000F078
:1089D00023F905A9686903F08AF9062000F030F947
:1089E0001A4A1B48516A4FF6F8730B405362194BF1
:1089F00019493022022583F86123DD604FF480722B
:108A00000394029401940096234602F05FF8B0426A
:108A100011D1039402940194009523464FF480727F
:108A20000E490F4802F052F8B04204D10D4802F04E
:108A300025FC02F013F90C4802F020FCFEE700BF11
:108A40000000A430801A06006C0100200000AB304A
:108A5000A587FF1F00E100E0C8DDFF1FD5DDFF1F78
:108A60008D87FF1FE4DDFF1FF8DDFF1F2DE9F843B1
:108A700098468389089E23F002031B041B0C838104
:108A800083890F4699060446154600F18D800389B7
:108A90009BB223F0100343F01003038103899BB2C0
:108AA00023F0200343F0200303816AB1012A01BFB0
:108AB00003899BB243F0040303813B780382551E74
:108AC00001374FF0100911E0038923F010031B0454
:108AD000012E4FEA134303810CBF1146012103F01D
:108AE000CBF9238A88F800304FF00009A3899A0750
:108AF000FCD5A38923F002031B041B0CA381B9F14D
:108B0000000F29D0DDB1A389DB070CD5238923F021
:108B100020031B041B0C2381238923F010031B0457
:108B20001B0C238140E0012D01BF23899BB243F040
:108B3000040323813B782382013D0137D6E7238953
:108B400023F010031B04012E4FEA134323810CBFB3
:108B5000294601212046C2E7022E04D100212046E9
:108B600003F08AF90CE00121204603F085F9012E7B
:108B700006D123899BB223F0100343F01003238115
:108B8000238A08F8013B013EB0D1238923F020035A
:108B90001B041B0C2381238923F010031B041B0CD3
:108BA00023810120BDE8F8830020BDE8F8830000A0
:108BB00010B586B059238DF8083009230446009378
:108BC000012203AB02A91348FFF750FFF8B19DF84B
:108BD0000E309DF80C2023709DF80D3043EA0223DF
:108BE00063809DF810309DF80F201B0443EA026358
:108BF0009DF8122013439DF8112043EA022363607D
:108C00009DF813209DF8143043EA0223238106B017
:108C100010BD00BF0000A4303F288ABF064B074BA1
:108C2000403807211A5C1207FCD119541A5C02F073
:108C30000F02072AF6D1704700003C3000003B309D
:108C40003F2886BF4038024B024B00221A5470471F
:108C500000003C3000003B3008B528B9044B054A01
:108C60000548682103F04AF9044B00221A6008BD48
:108C700016DEFF1FC6DEFF1F1EDEFF1F545400203E
:108C800030B5044685B00D461BB90E4B0E4A7F2108
:108C900003E028B90D4B0C4A80210D4803F02EF952
:108CA000029104A9ADF80C20089A41F80C2D184641
:108CB000002201F0CBFB18B12946204600F082FDCE
:108CC00005B030BD74DEFF1F03DEFF1F16DEFF1F81
:108CD0001EDEFF1F08B508B1C36A1BB90A4B0B4A59
:108CE0005A2105E00A4A12682AB90A4B074A5C2150
:108CF000094803F003F9DA60084B1860084B18685C
:108D0000BDE8084001F004BB79DEFF1FABDEFF1FAA
:108D10005854002094DEFF1F1EDEFF1F5454002015
:108D20005C5400202DE9F047244C98462368A6B0F7
:108D300005468A46174613BB014602A800F094F97F
:108D40000146002836D1204601F0BEFAB8B92368A2
:108D5000ABB1DFF888901A4B012F0CBFBDF84C1057
:108D6000BDF82C1019600C22484601F061FB064644
:108D700010B9D9F8003023B9206801F0A7FA1148DA
:108D800019E0114B114A00935146114B01972846A7
:108D900000F04CFC0546206801F09CFA206801F0C8
:108DA00095FA0C4B26601B68002BE8D0C8F8003001
:108DB000284600E0084826B0BDE8F0875C54002053
:108DC0006054002047F4FFFF818CFF1FD58CFF1FEC
:108DD000598CFF1F5454002041F4FFFF58540020C9
:108DE0007FB515461E460C46A9B1A0B1036893B1E4
:108DF0009B6A83B1089AC06801A901F04DFB60B17C
:108E00000EB1019B336015B1BDF90C302B60029B94
:108E10002360002002E0024800E0024804B070BD78
:108E200044F4FFFF46F4FFFF08B541B138B10068D4
:108E300028B1836A1BB100F0CEFC002008BD0148B8
:108E400008BD00BF44F4FFFF39B130B1006820B164
:108E5000836A13B1012200F0D5BC002070470000E6
:108E600037B5154604461A460B4649B140B100686D
:108E700030B1816A21B10095A16800F0FDFC00E0ED
:108E8000014803B030BD00BF44F4FFFF08B5034AFA
:108E9000034B04484B2103F031F800BF28DFFF1FCC
:108EA0005CDCFF1F36DFFF1F08B5034A034B044895
:108EB000442103F023F800BFFFDEFF1F5CDCFF1F2F
:108EC00036DFFF1F0A6802481204012102F0E0BFEA
:108ED0000000AB3008B50146064A006901F038FAD7
:108EE000054A536A23F4702343F0806353620020E1
:108EF00008BD00BFFD8EFF1F0000AB30084600F02C
:108F0000FBB8000007B5012101AA054802F0D8FF0F
:108F100018B9BDF8060001F05DFA03B05DF804FB76
:108F20000000AB30034B5868C0F30800003018BF96
:108F30000120704700ED00E0012808B503D90D4B72
:108F40000D4AAD2107E00D4B53F82020002A05DC27
:108F50000B4B094AAE210B4802F0D0FF013A43F80F
:108F600020201A6822B95B6813B9074B0222DA6025
:108F700008BD00BF95DFFF1F2DE0FF1F64540020D8
:108F8000BBDFFF1F36DFFF1F00E100E0012810B547
:108F900003D90E4B0E4AC72110E00E4B53F8202088
:108FA000002A08DB196861B9596851B90A490224D5
:108FB000C1F88C4005E0094B054AC821084802F079
:108FC0009DFF013243F8202010BD00BF95DFFF1F39
:108FD00047E0FF1F6454002000E100E0DBDFFF1FDB
:108FE00036DFFF1F08B50A4B1A68002A05DC094B5B
:108FF000094A0A48E32102F081FF013A1A602AB9BE
:1090000011461046BDE80840FFF796BF08BD00BFF7
:109010006C540020FCDFFF1FE1DEFF1F36DFFF1F67
:1090200038B5094B1C68002C1D4605DA074B084A69
:109030000848F12102F062FF02D12046FFF7A6FFA7
:1090400001342C6038BD00BF6C54002014E0FF1FB9
:1090500009DFFF1F36DFFF1F704770477047002092
:10906000704700207047000008B54B1C0A4B08D021
:109070001A688A4205D0D3F89020914209D1012183
:1090800000E00021902202FB013101F0E1F8002014
:1090900008BD4FF0FF3008BD2400002070B5154B0F
:1090A0001C6806462CB120680368B34220D0A4682F
:1090B000F8E7902001F0C6F80546C0B13146FFF749
:1090C000D3FF50B96968AA680846412301F07AF9CC
:1090D000102001F0B7F8014618B9284601F0B4F89D
:1090E00005E00560034800F034F8284670BD2046CE
:1090F00070BD00BF70540020006801F058B8C36D07
:109100000B606030704750F80C3B0B6070470430C8
:10911000704708B50B681A684301D01813441C3017
:10912000D961D2F880301B6803B19847002008BD90
:109130000368818C1B68D3F88020926822B103EB0E
:1091400041112C31186810477047002070470020EB
:10915000704761B1036833B18B600023CB60036853
:10916000D9600160704701608B600268D36070470E
:1091700003686BB161B18B4202D19B680360704799
:109180008B68CA68936003B970478B68CA68DA60F5
:1091900070472DE9F8431546804650B349B342B3B2
:1091A00093071CBF22F003050435B1FBF5F605FB60
:1091B0001611002918BF013616F01F0718BF012726
:1091C000202396FBF3F31F4407F108094FEA8909AE
:1091D000484601F037F8044658B100214A4601F0EC
:1091E00035F80121201D01F040F828B1204601F09A
:1091F0002BF80020BDE8F883C4F80080E560A76183
:1092000026612046BDE8F88338B505460C4639B3DB
:1092100030B3486801F036F82368ED1AE36895FB2F
:10922000F3F5104B2B40002BBCBF03F1FF3363F071
:109230001F034FF0200295FBF2F204EB82024FF085
:109240000101B8BF013301FA03F3D1694B40D36187
:1092500063696068013B6361BDE8384001F023B891
:1092600038BD00BF1F00008010B5044638B140680B
:1092700001F006F82046BDE8104000F0E5BF10BD43
:10928000431C23EA00000D4A013802EA5003C21AC7
:109290000B4B03EA9003D31A03EBD30323F063537E
:1092A00023F40E1323F4636323F008033F20B3FB7E
:1092B000F0F0C0EB8010181A704700BFDBB66DDB12
:1092C000499224492DE9F041044670B1406800F00C
:1092D000D9FF61692369994204DA2646002556F8C8
:1092E000188F06E0606800F0DEFF0020BDE8F08126
:1092F0000135454515DA56F8047F3846FFF7C0FFBB
:109300001F28F5DC012304EB850283401F43D7614E
:1093100000EB45132268E068013100FB0325616121
:1093200000E00025606800F0BEFF2846BDE8F0813F
:10933000002070477047C0687047C3681943C16018
:109340007047002070477047704700002DE9F043D8
:109350000446006A8FB004A9103015461F46DDF898
:109360005880FFF7D0FE049BAB4267DCDFF8E0904B
:1093700005460026049B216D9E422CDA6868079002
:10938000EB6808932A89ADF8242079B9B5F808C0AC
:109390005A1E02EB0C1E0CF104020EEB42025B4261
:1093A000134003EBCC020E3200F050FF05AB03EB91
:1093B00086030293CDF8049058F82630009357F8AE
:1093C000262007ABB1B2204600F06EFE2035002803
:1093D00037D10136CEE70129059B069A02D1E36118
:1093E000A26129E0E261A36131BB0D4602264FF480
:1093F000007788461CE0E06A036993FBF6F39D4220
:109400001ADAFFF75FFF8146D0B14FF400720021F6
:109410000A900B97CDF8308000F018FFCDF800903F
:10942000012300220AA9A06900F04EFD48B90135C8
:10943000A369DB8C9D42DEDB002002E0024800E0F5
:1094400002480FB0BDE8F08345F4FFFF46F4FFFF8C
:109450003191FF1F704700002DE9F3410746084690
:1094600090461E46FFF71AFE0546002856D05C209F
:1094700000F0E8FE0446002841D000215C2200F004
:10948000E5FE012104F14C0000F0EFFE002846D17A
:10949000089B6364099BA364224B256023611B69BD
:1094A0002562C4F85080266413B169692046984744
:1094B000236D1BB1236D012B15D10BE02846FFF75F
:1094C00026FE4FF4007203C8FFF763FEE062002837
:1094D000F0D114E001A9206AFFF711FE00258046B3
:1094E000019B9D4202DB00203C6018E035230022F6
:1094F00008EB4511204600F0EBF9064608B90A488A
:109500000DE04FF0FF332246A16C00F047F9F06206
:109510000028F4D0836833620135E1E7034802B0E4
:10952000BDE8F0814401002047F4FFFF41F4FFFF54
:1095300070B50546446AC06C0E4600F0A3FE3CB10F
:1095400020223146206800F087FE08B1A468F6E7C3
:10955000E86C00F0A8FE204670BD70B50546846A30
:10956000C06C0E4600F08EFE2CB123689B68B3429F
:1095700001D0A468F8E7E86C00F095FE204670BDC5
:1095800070B5436A0446BBB19E681D68636C0BB13D
:1095900028469847A36D33B1226D012A03D129468D
:1095A000204600F06EFAE86A08B100F004F9284697
:1095B00000F0BFF93346E6E735212046FFF7CDFF3F
:1095C00018B10168204600F067FBA06908B100F0FF
:1095D0000EFDE06908B100F00AFDE06A08B1FFF78E
:1095E00043FEE06C08B100F04BFE2046BDE8704041
:1095F00000F02ABE10B5036D0446006A33B9FFF7C8
:10960000A4FD48B9A06900F0ABFD02E0FFF79FFDA3
:1096100010B901236365002010BD08B528B1FFF71C
:10962000AFFFBDE8084000F0EBBD08BD2DE9F341F8
:1096300006460D461746984600F0BEFD044680B922
:10964000089B0193CDF800803B46099A3146284695
:10965000FFF702FF044620B9286800F0C9FB044662
:1096600010B12868FFF7D9FF204602B0BDE8F081AD
:109670002DE9F3470A9F884691469A46002851D023
:10968000036B866A022B4FD1736D012B4CD1F06CAA
:1096900000F0F8FD0DF1020201A9304600F0D7F903
:1096A000054630B90B9B3848002B14BF00240446F4
:1096B00000E00024F06C00F0F6FDA4B99624ADBBE8
:1096C0000A2000F043FEF06C00F0DCFD0DF1020218
:1096D00001A9304600F0BBF90546F06C00F0E3FD4F
:1096E000013CECD1294C2946304600F091FA326D0C
:1096F000012A41D1264B9C423ED10023C5F800806F
:109700002B736B73AA73EB73C5F80490BDF802302A
:10971000019A2946304600F06CF968BBF06900F008
:109720001FFD29E01B482BE01B4829E0019B113B52
:10973000BB4223D30023AB73EB733A46514605F18A
:109740001000C5F80490C5F80080AF8100F080FDDE
:10975000F06C00F097FDBDF80230019A29463046C2
:1097600000F047F9044610B9F06900F0F9FCF06C1C
:1097700000F099FD002CB6D1204601E0044CB2E780
:1097800002B0BDE8F08700BF47F4FFFF46F4FFFFDB
:1097900042F4FFFF44F4FFFF43F4FFFF38B50546F2
:1097A00030B131B1806A00F0D3FA18B1056038BD2C
:1097B00038BD084638BD014618B10368986A00F004
:1097C0006BBA704730B129B151F8083C43F00043FF
:1097D00041F8083C704738B50C4690B189B1856AAC
:1097E000E86C00F04FFD284634F8083C34F9062CAC
:1097F000A4F1100100F014F9E86CBDE8384000F065
:1098000052BD38BDF7B50F46164608B9002030E006
:109810000029FBD0856AE86C00F034FD0DF10202EE
:1098200001A9284600F013F90446E86C00F03BFD5E
:109830000CB9002EEAD0962694B90A2000F086FDD5
:10984000E86C00F01FFD0DF1020201A9284600F0AE
:10985000FEF80446E86C00F026FD013EECD1D5E7A9
:10986000BDF802302381019B6381103B3B6004F112
:10987000100003B0F0BD000038B51C4618B313B398
:10988000856A43F80C2C43F8101C049B24F8043C14
:10989000002304F8023C04F8013CE86C00F0F2FC00
:1098A00034F8083C34F9062CA4F11001284600F0E5
:1098B000A0F8044610B9E86900F052FCE86C00F02A
:1098C000F2FC204638BD014838BD00BF44F4FFFF1C
:1098D0002DE9F04105463420884617461E4600F023
:1098E000B1FC044610B33422002100F0AFFC20226A
:1098F0004146204600F0AEFC66622762A562102059
:1099000000F0A0FC064628B9204600F09DFC304639
:10991000BDE8F0810460E86C00F0B4FC05F12400BF
:109920003146FFF716FCE86C00F0BDFC2046BDE8B0
:10993000F08138B50446D0B10146806AFFF7F8FDE2
:10994000054678B1A36AD86C00F09CFCA06A294651
:109950002430FFF70DFCA36AD86C00F0A4FC284665
:1099600000F072FC2046BDE8384000F06DBC38BD08
:10997000F7B51D468B181746002203F8012C4A6ADA
:1099800012F001020E4611D02846FFF7D1FD70B348
:109990006B6C04680BB120469847E06AFFF70BFF39
:1099A000204603B0BDE8F040FFF7C3BF0B6A28466E
:1099B000FFF78EFF0446D0B1022303632A464FF01F
:1099C000FF33A96CFFF7EAFEE06280B18168216293
:1099D0000123019300973346626A2046FFF748FE51
:1099E0002B6C23B1204603B0BDE8F040184703B00C
:1099F000F0BD10B586B0002404940594046D029166
:109A000003923CB900910123224602A9C06900F0EB
:109A10005BFA03E01946C06900F018FB06B010BD00
:109A200010B586B0002404940594046D029103924D
:109A30003CB900910123224602A9806900F044FA52
:109A400003E01946806900F001FB06B010BD38B58F
:109A50001346026D04460D4652B9C06900F084FAFF
:109A600058B9E06AFFF72EFC4FF400732B6004E056
:109A70000A46C069194600F0C3FABDE8384000F054
:109A8000F0BBF7B50546C06C0E46174600F0FAFB72
:109A90000DF1020201A92846FFF7D9FF0446D0B113
:109AA000352200230271282243718371C37102732E
:109AB000437320223146103000F0CCFB6763336AD9
:109AC0002363019ABDF8023021462846FFF791FF33
:109AD000E86900F045FBE86C00F0E5FB03B0F0BD81
:109AE000F8B505682B6D012B14D16C6A02271E4650
:109AF00084B121680B6B5BB9AB6D002B0CBF3B468F
:109B00003346012B0B6303D100222846FFF7B9FF30
:109B1000A468EDE7F8BD10B51346026D1AB9806967
:109B200000F022FA04E00A468069194600F068FA5B
:109B3000BDE8104000F095BB2DE9FF4105686A6A59
:109B40007AB12B6D012B0CD111680A6B4AB9A86D43
:109B500020B10B632846FFF794FF56E002230B6306
:109B600053E0E86C00F08EFB0DF10A0203A92846D1
:109B7000FFF7D1FF0446E86C00F095FB00260227B2
:109B8000002C42D026726672A672E6726168284680
:109B9000FFF7E3FC002838D00368186848B1026B6F
:109BA000012A06D12368436207632B6C8BB1984767
:109BB0000FE0039AB2F5803F0BD2E289D20708D4B6
:109BC0002168A2890091D3F80480DB6804F11001B8
:109BD000C047E86C00F056FBA368002BBDF80A30C4
:109BE00003DA2381039B638104E0039A214628461C
:109BF000FFF716FF0DF10A0203A92846FFF78BFFB6
:109C00000446E86C00F04FFBBAE704B0BDE8F08111
:109C1000034608461A6D12B9D96AFFF7F5BA7047BC
:109C2000F8B50F4605460024BC4211DA2E4604352D
:109C30003068FFF725FB1F2808DC012300EB4414E4
:109C400003FA00F033681843306003E00134EBE7B7
:109C50004FF0FF342046F8BDB2EB411F16DA0D4B32
:109C60001340002BBEBF03F1FF3363F01F0301332A
:109C7000202192FBF1F1012202FA03F350F8212096
:109C800022EA030240F82120002070474FF0FF3005
:109C9000704700BF1F00008070B50D4689680446FC
:109CA000FFF75BFC064698B1E06C00F0EBFAAA689F
:109CB000042104F13000FFF7CFFF314604F1280002
:109CC000FFF756FAE06C00F0EEFA304600F0BCFA0E
:109CD0002846BDE8704000F0B7BA0000B2EB411F63
:109CE00013DA0B4B1340002BBEBF03F1FF3363F0BD
:109CF0001F030133202192FBF1F1012202FA03F349
:109D000050F8212003EA020070474FF0FF307047FF
:109D10001F000080B2EB411F15DA0C4B1340002BE3
:109D2000BEBF03F1FF3363F01F030133202192FB19
:109D3000F1F1012202FA03F350F82120134340F815
:109D40002130002070474FF0FF3070471F00008027
:109D50002DE9F047054610208A4691461F4600F03F
:109D600071FA044600283FD01022002100F06EFA5C
:109D7000102000F067FA064618B9204600F064FA91
:109D800021E0E86C00F07EFA7B1C05F130080BD076
:109D90003A4604214046FFF7A1FF58B93A4604214C
:109DA0004046FFF7B7FF11E004214046FFF738FFB8
:109DB00007460BE0304600F047FA204600F044FA30
:109DC000E86C00F070FA0020BDE8F087A760C4F8E6
:109DD00004A0C4F80C9005F1280034603146FFF768
:109DE000B8F9E86C00F05FFA2046BDE8F0870000A3
:109DF00030B5036D2349244A87B00446012B234B19
:109E0000234803BF04910293039205911CBF029261
:109E1000039302AA236908BF05904FF0000118BF01
:109E20000490009201911D68022204AB2046A847CD
:109E300030BB23692046DB689847C30708D4236DED
:109E4000A569E169012B0FD00B4629461D460BE0A1
:109E50000123A365224635230E492046FFF778FFEC
:109E60000028ECD10C480BE00020FFF752F938B97C
:109E700029460120FFF74DF910B92046FFF7BAFB3C
:109E800007B030BD62E0FF1F399BFF1FE19AFF1F43
:109E900068E0FF1F7199FF1F47F4FFFF10B5436D86
:109EA000C28C0446501E5A88024003EB420399803C
:109EB00000F0D6F9626D538801335380B4F85E30F8
:109EC0000133A4F85E3010BD2DE9F04FB0F860907A
:109ED00085B002EB030A00EB091388461FFA8AFBE0
:109EE0000E999966A3F874B0036D0093002504469B
:109EF0004E462B460AF1FF31AA4525DDB8F1000F89
:109F000022D00293009BD8F80000039136019F19DC
:109F1000019200F0A6F9009B03999851029B7B6087
:109F2000019AD8F80400B860A942D4BF18460120AD
:109F3000AA42B881DEBF80B240F00200B88101358C
:109F4000FE89D8F80880D7E7B4F85C30A4F86060E0
:109F5000CBEB03032046A4F85C304946FFF79EFF95
:109F6000002005B0BDE8F08FF8B50F460446002884
:109F70003AD0856DB0F862306A889A4235D0C68C86
:109F8000013E1E405A1C05EBC605A0F8622000F0F9
:109F900066F9AE880FB1AB683B6030012518B4F8A4
:109FA0005C10B5F87420276D11443B18013AA4F8F1
:109FB0005C10A5F874209A8951070BD49A89D207AE
:109FC00008D5B5F87420DB89013A07EB0313A5F82F
:109FD0007420F3E7B4F86020DA81A4F860600444E8
:109FE0000023A06EA366F8BDF8BD0020F8BD30B117
:109FF000836B13B100230363836300F025B97047BB
:10A0000070B50446B0F86430406D164642889A42F6
:10A010000D4618D05A1CA4F86420E28C013A134073
:10A0200000EB43039B880B8000F019F92B88226D0D
:10A030001B01D05800F017F92A88236D03EB021397
:10A040009B68336070BD002070BD000038B5C38CC4
:10A050008B4205460FD3846D6088013B034004EBBF
:10A06000C30359609A6000F0FBF8AA6D538801336E
:10A070005380002038BD014838BD00BF41F4FFFFC8
:10A08000836A13F0020F436D09D0C26CC18C03EBDD
:10A090004203B0F86220013A521A9A8070471A8837
:10A0A00042F001021A8070472DE9F8431D892D0105
:10A0B0007835814628460F4690461E4600F0C2F885
:10A0C0000446002847D02A46002100F0BFF8204669
:10A0D000202240F8049B414600F0BCF8A784756834
:10A0E000E562089B3089E363099BE084A4F85C0087
:10A0F000236472683789531E391D03EB071303EB82
:10A100004103514203EA010202EBC7020E3222630D
:10A110003368A363236503EB0013636503EB40031C
:10A120002B4403336D422B40E064A36501380023C8
:10A13000216D1A0183420A4402DA0133D381F7E721
:10A140004FF40043D3812046FFF79AFF0A9B1C601F
:10A150000020BDE8F8830148BDE8F88344F4FFFF20
:10A1600010B5044600F07AF8A36AA26D13F0020F4E
:10A170000FD0E16C636D02EBC1025B889288013BFA
:10A180009B1AB4F85E209BB29A4294BF002301232D
:10A1900004E0138803F0010383F001031BB1236C77
:10A1A0000BB1204698470023A4F85E3010BDC36B66
:10A1B00003B118477047000008B50C4A1368002B1C
:10A1C00005DA0B4B0B4A0C48572101F097FE01337F
:10A1D000012B136008D150220021084801F003FF31
:10A1E000BDE80840FEF73BBF002008BD74540020C6
:10A1F00097E0FF1F83E0FF1FADE0FF1F78540020B2
:10A2000008B50B4B1968002905DC0A4B0A4A0B48B4
:10A210006C2101F073FE0139196039B950220848E8
:10A2200001F0E1FEBDE80840FEF71BBF002008BDBD
:10A230007454002015E1FF1F8CE0FF1FADE0FF1FED
:10A2400078540020FEF724BAFEF77EBA01F0CBBEA8
:10A2500001F0BEBE02F068BA02F051BA7047704712
:10A260007047FEF7FABEFEF7F9BE10B504460A20A5
:10A2700000F03CFA2060B0FA80F04009404210BD86
:10A2800000F0D8BB10B50446FEF74CFE034648B9B3
:10A2900001464FF0FF32204600F002FBBDE81040BF
:10A2A000FEF7BEBE10BD70B50546FEF73BFE044688
:10A2B00048B9FEF797FE2346224621462846BDE8C8
:10A2C000704000F028BA70BDFFF7CFBF08B100F0B2
:10A2D000B1BB704737B5002504460195FEF722FE55
:10A2E000034658B101AA2946204600F05CFB019BB9
:10A2F00053B1064B4FF080521A6005E001464FF013
:10A30000FF32204600F0CCFA03B030BD04ED00E08F
:10A3100037B5002504460195FEF704FE60B12B46D3
:10A3200001AA2946204600F076FA019B53B1064B5C
:10A330004FF080521A6005E003460246014620466F
:10A3400000F0E9F903B030BD04ED00E000F0ACBD71
:10A35000032810B506DD074B074A084840F2A11153
:10A3600001F0CCFD064B142404FB0030C1600261F7
:10A3700010BD00BF2AE1FF1F57E1FF1FADE0FF1F27
:10A3800078540020032838B50C46114606D9094BED
:10A39000094A0A484FF4E17101F0B0FD084A14255A
:10A3A00005FB002322465C609960BDE83840FEF75B
:10A3B000C3BD00BF2AE1FF1F6EE0FF1FADE0FF1F1E
:10A3C0007854002010B40C46014620465DF8044B3A
:10A3D000FEF742BE032838B5054604DD0F4B104A90
:10A3E00040F20D2109E00F4C142303FB00442369C4
:10A3F00033B90D4B0A4A40F211210C4801F07EFDA1
:10A40000FEF7C4FDE168236928469847A2686168A1
:10A410002846BDE83840FFF7B5BF00BF2AE1FF1F5F
:10A420004FE1FF1F785400203DE1FF1FADE0FF1F0B
:10A4300010B5044608461146002200F039F92060A4
:10A44000B0FA80F04009404210BD000073B50446E8
:10A450000D461646FEF766FD034670B1002301AABD
:10A460002946204600F0D7F901280FD1019B73B18E
:10A47000084B4FF080521A6009E0324629462046C8
:10A4800000F049F9431E5842584100E0002002B054
:10A4900070BD00BF04ED00E073B504460D461646DE
:10A4A000FEF740FD034668B101AA2946204600F0A8
:10A4B0007AFA01280FD1019B73B1084B4FF08052FB
:10A4C0001A6009E032462946204600F0E9F9431EA9
:10A4D0005842584100E0002002B070BD04ED00E099
:10A4E00000F1080343604FF0FF32C36003610023B3
:10A4F00082600360704700230361704743684B60CC
:10A500009A688A609A6851609960086103680133AB
:10A51000036070470A68531C30B501D1036907E036
:10A5200000F108035C682568AA4201D32346F9E7D5
:10A530005A684A6091608B60596008610368013312
:10A54000036030BD42688168036991608268416838
:10A5500051605A68904204BF82685A6000220261CA
:10A56000186801381860704738B51546026C044603
:10A5700012B365B9806801F02BFDA268236C134407
:10A580006268A360934217D32368A36014E0C06895
:10A5900001F01EFD236CE26821685B421A448A4286
:10A5A000E2603EBF62689B18E360022D04D1A36B9A
:10A5B00013B1A36B013BA363A36B0133A36338BD4A
:10A5C000034630B41C6808465CB1D9681A6C5D68F3
:10A5D0001144A942D96028BFDC60D96830BC01F0C1
:10A5E000F7BC30BC704738B50446FDF76DFF04F189
:10A5F0002405A36C002B0BDD636A4BB1284600F0E9
:10A60000D7FC08B100F04CFDA36C013BA364F0E75C
:10A610004FF0FF33A364FDF769FFFDF755FF04F129
:10A620001005636C002B0BDD23694BB1284600F04D
:10A63000BFFC08B100F034FD636C013B6364F0E7DC
:10A640004FF0FF336364BDE83840FDF74FBF38B5C6
:10A650000D46044610B9FDF721FFFEE7FDF734FF74
:10A66000206CE36B2268A2604343D1181B1A134489
:10A670006160E36000214FF0FF33A1636364A36472
:10A6800055B9236983B104F1100000F091FC012851
:10A690000AD1FDF7F7FE07E004F11000FFF720FFF5
:10A6A00004F12400FFF71CFFFDF720FF012038BD57
:10A6B00070B50E46054670B14C20FDF7E9FF044623
:10A6C00048B106FB05F00130FDF7E2FF206028B934
:10A6D0002046FEF739F8FDF7E1FEFEE7E563266464
:10A6E00001212046FFF7B3FF204670BD10B50C4690
:10A6F00010B9FDF7D3FEFEE7884202D2FDF7CEFE89
:10A70000FEE702220021FFF7D3FF08B1846310BDEA
:10A71000FDF7C4FEFEE72DE9F04385B089460192BE
:10A720001F46044610B9FDF7B9FEFEE721B9036CD8
:10A7300013B1FDF7B3FEFEE7022F02D1E36B012B4D
:10A7400063D100264FF00008FDF7BEFEA26BE36B5D
:10A750009A4201D3022F12D13A4649462046FFF7CA
:10A7600003FF636A3BB104F1240000F021FC0128DF
:10A7700001D1FDF787FEFDF7B9FE012048E0019DFC
:10A780001DB9FDF7B3FE284642E016B902A800F055
:10A7900049FCFDF7ABFE00F08BFAFDF795FE636C0C
:10A7A000013308BFC4F84480A36C013308BFC4F868
:10A7B0004880FDF79BFE01A902A800F043FCE8B920
:10A7C000FDF782FEA66BE56BFDF790FEAE420FD162
:10A7D000019904F1100000F0C5FB2046FFF703FFCC
:10A7E00000F0FCFA08B10126AEE7FDF74BFEFAE7F0
:10A7F0002046FFF7F8FE00F0F1FAF4E72046FFF7F5
:10A80000F2FE00F0EBFA002002E0FDF747FEFEE763
:10A8100005B0BDE8F0832DE9F0410E4690461D4697
:10A82000044610B9FDF73AFEFEE721B9036C13B1F7
:10A83000FDF734FEFEE7022D05D1E36B012B02D0BC
:10A84000FDF72CFEFEE7FDF701FFFDF727FEA26BEB
:10A85000E36B9A42074601D3022D1AD12A463146AC
:10A860002046FFF781FEA36C01330DD1636A73B1FB
:10A8700004F1240000F09CFB48B1B8F1000F06D0B1
:10A880000124C8F8004005E0A36C0133A36401244F
:10A8900000E000243846FDF725FE2046BDE8F081A3
:10A8A0002DE9F04385B00E4601929946044610B951
:10A8B000FDF7F4FDFEE711B9036C002B6DD1002705
:10A8C0004FF00008FDF700FEA36B13B3314620469E
:10A8D000E568FFF775FEB9F1000F0DD1A36B013BE1
:10A8E000A36323698BB104F1100000F061FB012820
:10A8F0000BD1FDF7C7FD08E0636AE5602BB104F1F9
:10A90000240000F055FB0028F3D1FDF7EFFD0120F6
:10A9100046E0019D1DB9FDF7E9FD284640E017B965
:10A9200002A800F07FFBFDF7E1FD00F0C1F9FDF7A3
:10A93000CBFD636C013308BFC4F84480A36C0133C2
:10A9400008BFC4F84880FDF7D1FD01A902A800F0B6
:10A9500079FBD8B9FDF7B8FDA56BFDF7C7FD7DB94B
:10A96000019904F1240000F0FDFA2046FFF73BFEB8
:10A9700000F034FA08B10127A4E7FDF783FDFAE7F8
:10A980002046FFF730FE00F029FAF4E72046FFF7F3
:10A990002AFE00F023FA002002E0FDF77FFDFEE72B
:10A9A00005B0BDE8F083F8B50E461746044610B969
:10A9B000FDF774FDFEE721B9036C13B1FDF76EFDE1
:10A9C000FEE7FDF743FEFDF769FDA36B0546CBB13E
:10A9D00031462046FFF7F4FDA36B013BA363636C94
:10A9E00001330AD123695BB104F1100000F0E0FAF1
:10A9F00030B12FB101243C6005E0636C0133636426
:10AA0000012400E01C462846FDF76CFD2046F8BDF9
:10AA1000074A002302EBC3014968814204D1044A7A
:10AA2000002142F8331070470133082BF2D17047F0
:10AA3000C854002010B5044610B9FDF72FFDFEE7FD
:10AA4000FFF7E6FF006808B1FDF77EFE2046BDE88F
:10AA50001040FDF779BEFEE7064A13681968064BF9
:10AA600011B94FF0FF3203E01268D268D268526821
:10AA70001A6070470C5500206801002010B50E4B7D
:10AA80001A6850600D4A12689042044607D20C4A78
:10AA900010681968BDE810400431FFF73BBD094A52
:10AAA000106819680431FFF735FD074B1A689442A6
:10AAB00038BF1C6010BD00BFA8550020C055002045
:10AAC000C45500200C550020680100202DE9F84FE6
:10AAD0000AAE0F4615469A4696E8400A804610B9D7
:10AAE000FDF7DCFCFEE7042E02D9FDF7D7FCFEE7FC
:10AAF0004020FDF7CDFD0446002800F09380BBF117
:10AB0000000F03D1A800FDF7C3FD00E05846206305
:10AB100018B92046FDF718FE84E005F18045013D97
:10AB200000EB85007B1E20F0070504F13302093796
:10AB300013F8011F02F8011F197809B19F42F7D1DC
:10AB40000023271D84F83D303846E662FFF7D3FC2A
:10AB500004F11800FFF7CFFCC6F105032461A361DF
:10AB60006462524641462846FDF76AFC2060B9F10E
:10AB7000000F01D0C9F80040FDF7A6FC2B4A2C4D70
:10AB80001368DFF8CC90013313602B6823BB2C6073
:10AB90001268012A28D1984609EB080008F1140828
:10ABA000FFF79EFCB8F1640FF6D1DFF8A8A0DFF83C
:10ABB000A8805046FFF794FC4046FFF791FC1D48E3
:10ABC000FFF78EFC1C48FFF78BFC1C4BC3F800A062
:10ABD0001B4BC3F8008007E01A4B1B6823B92B6896
:10ABE000DB6A9E4228BF2C60174A1368013313604A
:10ABF000164AE36A116814208B4200FB0390394621
:10AC000088BF1360FFF77AFCFDF770FC0D4B1B68E3
:10AC10002BB12B68DB6A9E4201D9FDF733FC012082
:10AC2000BDE8F88F4FF0FF30BDE8F88FCC5500201D
:10AC3000A8550020AC550020D05500200C55002010
:10AC4000C455002010550020C8550020E4550020B0
:10AC500040550020145500202855002030B585B0FF
:10AC600000240394029401940094234682220C4908
:10AC70000C48FFF72BFF012805460AD1FDF70EFC13
:10AC8000094B1D60094B1C6005B0BDE83040FDF765
:10AC900089BC10B9FDF702FCFEE705B030BD00BF6E
:10ACA00068E1FF1F57AAFF1F10550020C055002064
:10ACB000024A136801331360704700BFA455002097
:10ACC0002DE9F74F3A4B1B68002B36D1394B1A68E8
:10ACD00001321A601D688DB9374B1A68126812B1BB
:10ACE000FDF7DCFBFEE7354A196810681860116053
:10ACF000334A136801331360FFF7AEFE314C019401
:10AD00002368314E314F9D424FF0000B0BD3DFF8DB
:10AD1000A880DFF8C490D8F800201268A2B9019B7F
:10AD20004FF0FF321A603A68D16A14224A43B2588F
:10AD3000022A28BF4FF0010B30E0254A1368013387
:10AD400013604FF0000B29E0D8F80020D268D468D7
:10AD500061688D4202D2019B1960E4E704F1040AA4
:10AD60005046FFF7EFFBA16A19B104F11800FFF795
:10AD7000E9FBE06AD9F800101423884288BFC9F8BB
:10AD80000000514603FB0060FFF7B8FB3868E16A3A
:10AD9000C26A914228BF4FF0010BBCE70D4A12680E
:10ADA000002A18BF4FF0010B584603B0BDE8F08FE2
:10ADB000A4550020C05500200C550020C45500208B
:10ADC000085500206801002040550020A8550020AB
:10ADD0003C550020E8550020E45500202DE9F041C5
:10ADE000294C236813B9FDF759FBFEE7FDF76CFB0F
:10ADF0002368013B236023680BB100243FE0234B11
:10AE00001B68002BF9D0224D224EDFF898802B686A
:10AE1000F3B1EB68DC68271D04F11800FFF792FB23
:10AE20003846FFF78FFBE36A32681420934200FB39
:10AE30000380394688BF3360FFF760FB164BE26A38
:10AE40001B68DB6A9A42E2D3144B01221A60DCE7EA
:10AE5000134C236833B9114B1C68012CCDD1FDF77D
:10AE600011FB0CE00D4D01262368002BF3D0FFF7FA
:10AE700027FF00B12E602368013B2360F4E7FDF754
:10AE800035FB2046BDE8F081A4550020CC550020BC
:10AE9000AC550020E4550020A8550020E8550020BE
:10AEA0003C5500204055002010B518B9BDE81040B1
:10AEB000FDF7E8BA0B4B1B6813B1FDF7EFFAFEE79D
:10AEC000FFF7F6FE084B1B68C418084B18680430DF
:10AED000FFF738FB2046FFF7D1FDFFF77FFF002883
:10AEE000E4D010BDA4550020C0550020A855002076
:10AEF00010B5174B1A68174B0AB1012225E01A60EA
:10AF00001548164B14241A6813496243825842B9F3
:10AF10001A6812B9FDF7C2FAFEE71A68013A1A6018
:10AF2000F1E70E4B1A6814235343C81808334468DA
:10AF3000646844600B449C4204BF6368436014230C
:10AF400003FB02125368DA68054B1A6010BD00BF9C
:10AF5000A4550020E855002040550020E45500206D
:10AF6000A855002038B50D4610B9FDF797FAFEE751
:10AF70000C4C21681831FFF7CDFA20680430FFF738
:10AF8000E1FA6B1C06D1216807480431BDE838405E
:10AF9000FFF7B4BA054B18682844BDE83840FFF7FE
:10AFA0006DBD00BFA8550020D0550020C055002021
:10AFB00038B5C368DC6814B9FDF770FAFEE704F130
:10AFC00018052846FFF7BEFA104B1B687BB9251DF4
:10AFD0002846FFF7B7FA0E4AE36A11688B4288BF2A
:10AFE00013600C4A1420294600FB032001E00A48A4
:10AFF0002946FFF783FA094BE26A1B68DB6A9A422B
:10B0000083BF074B01201860002038BDA4550020E5
:10B01000E455002040550020AC550020A8550020E4
:10B02000E855002008B510B9FDF738FAFEE7034BE4
:10B030001B680360024B1B68436008BD0855002075
:10B04000C055002038B50D46044610B9FDF726FA64
:10B05000FEE711B9FDF722FAFEE7FDF735FA0E4BD0
:10B0600019682B685A1C10D00C4A2068126890424C
:10B07000626801D091420AD2881A834207D9521AD3
:10B0800013442B602046FFF7CDFF002400E001248D
:10B09000FDF72CFA204638BDC05500200855002089
:10B0A000014B01221A607047E8550020D0F8B030FB
:10B0B000DB0309D4054B0648D3F8B03013F0010F79
:10B0C000044B18BF184670470348704700003630DD
:10B0D00000389C1C00A4781F00366E0108B502B130
:10B0E0002BB9074B074A08483D2100F007FF0868C5
:10B0F000C0F3024010600A6802F03F021A6008BD07
:10B10000C5E1FF1FD1E1FF1F75E1FF1F10B5072B40
:10B11000029803D90C4B0D4A4B2104E03F2805D976
:10B120000B4B0A4A4C210B4800F0E8FE120602F0D5
:10B13000E0620C68024308481B042040104303F4FB
:10B14000E02303430B6010BD6DE1FF1FE4E1FF1F2F
:10B15000BBE1FF1F75E1FF1FC0FFF8F813B5084BF7
:10B160008DF807001A783AB158689C6801220DF1F1
:10B170000701A047002001E04FF0FF3002B010BDF2
:10B18000EC55002070B505460C468E18B4420AD026
:10B190004FF41801284600F0A3FD0028F8D02B68D2
:10B1A00004F8013BF2E770BD70B505460C468E18F9
:10B1B000B4420FD014F8013B2B640749284600F035
:10B1C0008FFD0028F9D00549284600F089FD0028A8
:10B1D000F9D0EDE770BD00BF0E00980003009800A5
:10B1E00030B5114D2C7887B0D4B920238DE80600F6
:10B1F000029369460623686005930394049400F063
:10B200003FFD6A68D2F8803043F00103C2F8803015
:10B21000064BAB60064BEB6001232B70204600E031
:10B22000032007B030BD00BFEC550020A9B1FF1FBF
:10B2300085B1FF1F38B5144651B10138012807D830
:10B24000054B187820B158689D68A847204638BD3E
:10B250004FF0FF3038BD00BFEC55002038B5144624
:10B2600038B9054B187820B15868DD68A8472046E2
:10B2700038BD4FF0FF3038BDEC5500200FB41FB57E
:10B280000A4B1B7853B107AB039300934FF0FF3287
:10B29000069B0749002000F057F801E04FF0FF300F
:10B2A00005B05DF804EB04B0704700BFEC5500201A
:10B2B0005DB1FF1F70B500240470B2B10A681AB9FD
:10B2C00030234370012128E0044692FBF3F505FB8F
:10B2D0001322002AB4BFC2F13002303204F8012F29
:10B2E0002A46211A002DF0D117E00A68002AE7D07B
:10B2F0009DF810100029044614BF37265726B2FBCC
:10B30000F3F505FB1322092A94BF3032921904F891
:10B31000012F2A46211A002DF1D1084670BD2DE9D2
:10B32000F041069D0C4617461E465FFA80F8BC4267
:10B3300007DA07994046A847316801313160013486
:10B34000F5E7BDE8F08100002DE9F04F93B09B4692
:10B3500000230693AA4B1C9C0492B2F1FF3F18BF36
:10B36000134606460F4605939BF80000002800F0A0
:10B37000C581252840F0B88100255B465A782B2AE4
:10B3800003F1010102D145F0020504E005D92D2A9F
:10B390000DD145F001050B46F0E7202A02D145F01A
:10B3A0000405F8E7232A07D145F01005F3E7302A12
:10B3B00002D145F00805EEE74FF000085A78A2F1F7
:10B3C0003000092803F1010106D80A2303FB0828ED
:10B3D000A8F130080B46F1E72E2A05D10B460131C2
:10B3E0005A78303A092AF9D95A78682A04D06C2A4E
:10B3F00005D04C2A09D107E09A78682A01E09A78AA
:10B400006C2A01D1023300E00133587803F1010BBB
:10B41000A0F15803202B00F26781DFE813F0210030
:10B4200065016501650165016501650165016501EC
:10B430006501DC002F0123006501650165016501DF
:10B44000230065016501650165015F01D200E60029
:10B450006501650138016501F3006501650168005A
:10B46000012345E012A9236841F82C3D01220A235B
:10B47000009209A8FFF71EFF09AB03440393079B43
:10B48000002B04F10409044603DA01344FF02D0ABD
:10B490000BE0AB0703D501344FF02B0A05E015F0A4
:10B4A000040A1CBF01344FF0200A28070AD5BAF15C
:10B4B000000F00F0BA8031465046B847069B013372
:10B4C0000693B2E0E90707D40196009706AB42461F
:10B4D00021462020FFF723FFBAF1000F00F0AE80D5
:10B4E00031465046B847069B01330693A6E0002339
:10B4F00012A90293236841F8283D029B0093002281
:10B50000102309A8FFF7D6FE09AB0344039315F0F7
:10B51000080304F1040905F0100A04461BD0BAF12F
:10B52000000F0ED031463020B847029B002B314629
:10B530000CBF78205820B847069B023306934FF083
:10B54000010A21460196009706AB42463020FFF7DC
:10B55000E6FE444621E0EA071ED4BAF1000F00D00F
:10B5600002340196009706AB424621462020FFF7A1
:10B57000D6FEBAF1000F10D031463020B847029BFA
:10B58000002B31460CBF78205820B847069B023369
:10B5900006934FF0010A00E09A46E8064ED5BAF14C
:10B5A000000F4BD131463020B847029B002B31466B
:10B5B0000CBF78205820B847069B0233069302340C
:10B5C0003CE012A9236841F8283D0123009304F1CF
:10B5D000040908231FE012A9236841F8283D01232C
:10B5E000009304F10409022315E012A9636841F8ED
:10B5F000283D0123009304F1080910230BE000BF4C
:10B60000FEFFFF7F12A9236841F8283D0123009324
:10B6100004F104090A23002209A8FFF74BFE09AB35
:10B6200003442907044603930CD52146019600974D
:10B6300006AB42463020FFF772FE4446039B03F1FF
:10B64000010A0AE0EA07F9D401460196009706AB21
:10B6500042462020FFF763FEF0E71AF8010D28B1FB
:10B660003146B847069B01330693F6E7EB0741D511
:10B670000196009706AB424621462BE031462078E2
:10B68000B847069B013304F10409069332E004F144
:10B690000409246874B32046FCF75CFE15F001052C
:10B6A000824607D101460196009706AB424620200C
:10B6B000FFF735FE013C14F8010F28B13146B847B9
:10B6C000069B01330693F6E7A5B10196009706ABFA
:10B6D000424651462020FFF722FE0BE02368069ADF
:10B6E0001A6004F1040905E03146B847069B0133AE
:10B6F0000693A1460BF1010B4C4635E6059B0BB1B9
:10B70000069800E0049813B0BDE8F08F2C4AD2F8F8
:10B71000883043F47003C2F8883048F28003294A25
:10B720004FF08851D150BFF35F8F274B27492848EE
:10B7300000225A609A60DA601961012199604FF025
:10B74000C041D9601861022098602248D860224820
:10B75000186103209860D96004202049196198601D
:10B760004FF00040D8601961062005219960DA6029
:10B770001A6198600720DA601A619860DA601A61CD
:10B780005960BFF34F8FBFF36F8F154B4FF0A0621F
:10B79000C3F80028D3F8002842F00042C3F800287C
:10B7A000D3F80028002AFBDB0D4B0322C3F8002846
:10B7B000BFF34F8FBFF36F8F014B0A4A9A607047F8
:10B7C00000ED00E00000383090ED00E03B000803A1
:10B7D0003D0008030000202021000B0329000B037B
:10B7E000002008E00080FF1F2A4B98421ED004D89A
:10B7F000A3F58033984208D07047274B984226D053
:10B8000003F58033984233D07047244B1022C3F89D
:10B810004821C3F84C210122C3F8D425C3F8D82508
:10B820007822C3F8B823C3F8BC2370471B4B1022FF
:10B83000C3F85021C3F854210122C3F8DC25C3F812
:10B84000E0257822C3F8C023C3F8C4237047134B04
:10B850001022C3F85821C3F85C210222C3F8E42562
:10B86000C3F8E8257822C3F8C823C3F8CC2370476F
:10B870000A4B1022C3F86021C3F864210222C3F8E6
:10B88000EC25C3F8F0257822C3F8D023C3F8D423DD
:10B89000704700BF0000A3300000A4300000333028
:10B8A000094B98420ED1A3F5AC030022C3F8302116
:10B8B000C3F834217822C3F8A023C3F8A4230222BA
:10B8C000C3F8FC26704700BF0000893013B5002480
:10B8D00023462246009414491448FFF717FC144BE2
:10B8E00014494FF080521A60134A41F211130C2090
:10B8F0000B60C2F828041148028922F001021204E8
:10B90000120C02810E4A0C601360136202F5615240
:10B91000136013611362C2F8E039C2F8F03902F51E
:10B92000E072136002B010BD80BB383000003830C8
:10B9300084BB3830E049383000003D3000002A3008
:10B940006008383013B5124B12491348134C0C22BF
:10B95000C3F8A425002300931A46FFF7D7FB104B2A
:10B960004FF080521A60A3F5CD43343B42F22222BD
:10B970001A602046FFF794FF204600F077F84FF456
:10B98000E1320146204602B0BDE81040FFF728BC76
:10B9900000003D3000B03830000038300000893001
:10B9A00004B03830024B0122C3F80422704700BFB4
:10B9B00000003D3008B528B9064B074A0748542116
:10B9C00000F09CFA436882681A60C36802691A60D2
:10B9D00008BD00BF06E2FF1FF3E1FF1F0DE2FF1FDE
:10B9E000194B984213B50FD005D8A3F58033984270
:10B9F00027D116490BE0164B984207D003F5803348
:10BA000098421ED1134902E0134900E013490C6823
:10BA10001348C4F3026401AB6A46FFF75FFB34B11D
:10BA2000012C0ED10F48FFF741FB800800E00E48C3
:10BA3000009B0133B0FBF3F0019B0133B0FBF3F04B
:10BA400000E0002002B010BD0000A33080AD38300F
:10BA50000000A43000AF383000AE383080AE38304F
:10BA6000000038300000363000366E01134B98422B
:10BA700013B520D1124913480C6801AB6A46FFF791
:10BA80002DFBC4F30263012B06D00AD3042B12D181
:10BA90000D48FFF70BFB05E00B48FFF707FB4008DD
:10BAA00000E00A48009B0133B0FBF3F0019B013337
:10BAB000B0FBF3F000E0002002B010BD00008930C0
:10BAC00000B03830000038300000363000366E01EB
:10BAD00073B5FFF767FF164CFFF7F8FEFFF732FF6D
:10BAE000144B15480C2641F21112C4F82C651A604B
:10BAF000124BC4F81834124B42F222251D60FFF796
:10BB000059FF0023C4F810651A4600930D490E48EA
:10BB1000FFF7FCFA0D4B0E484FF080521A60A3F568
:10BB2000CB43643B1D6002B0BDE87040FFF75CBED4
:10BB300000003D30704238306C0100200E000040A3
:10BB4000604A383080AE38300000383084AE38304B
:10BB50000000A430D0F8803023F00103C0F880301A
:10BB600001220023C0F88030C0F884204FF4E06246
:10BB7000C0F888204FF40042C0F88C2040F6010243
:10BB8000C0F890202B22C0F89C206022C0F8A03082
:10BB9000C0F8B030C0F8B420C0F8B830D0F8843065
:10BBA00023F00103C0F88430D0F88430DB07FBD5E4
:10BBB00070470000120170B513460C4601253BB1D9
:10BBC000B4FBF3F603FB16461D461C463346F6E768
:10BBD000294CB1FBF5F3A342B2FBF5F202D8B2F562
:10BBE000803F14D35D1EB5FBF4F4551E661C4FF662
:10BBF000FF74B5FBF4F56C1CB44238BF3446B3FB9C
:10BC0000F4F3B2FBF4F273B1002A08BF01224FF63D
:10BC1000FF755C1EB4FBF5F4651C013C052C05D8D2
:10BC2000164E345D03E012B301231D460524D0F8FF
:10BC3000906026F46076C0F89060D0F89060E401DF
:10BC400004F46074013A92B23443C0F89040C0F8F2
:10BC5000A420B3FBF5F2013A92B24FF47A73C0F824
:10BC6000A8206B43B1FBF3F1C0F8B01070BD012206
:10BC700015461346DAE700BFF9FF06006CE2FF1F26
:10BC800010B529B9134B144A1448312100F036F984
:10BC9000D0F8803023F00103C0F88030FFF75AFF5E
:10BCA000D0F884208B681343CA6843F4804313435D
:10BCB0000A6913434A691A43C0F88420D0F88830CF
:10BCC00043F00403C0F8883006C9BDE81040FFF710
:10BCD00071BF00BF72E2FF1FB4E3FF1F7DE2FF1FD1
:10BCE0000B0C89B2C058C84000F00100704710B575
:10BCF00000234361C3610A790B684468012A15BFB8
:10BD000001229A409A40224318BF24EA020242606C
:10BD10004A790F2B92BF0C301030103B032A25D8E4
:10BD2000DFE802F0020A121D02685B00032101FA3B
:10BD300003F322EA030318E002685B000321994041
:10BD400022EA0101012206E002685B00032199401A
:10BD500022EA0101022202FA03F30B4305E0026822
:10BD60005B00032101FA03F31343036010BD0000DD
:10BD70001F2908B505D9094B094A0A48712100F065
:10BD8000BDF8012A036815BF01228A408A401A4380
:10BD900018BF23EA0202026008BD00BFD2E3FF1F02
:10BDA000BEE3FF1FDBE3FF1F038923F080031B04B7
:10BDB0001B0C0381002303808380038170470000F4
:10BDC00038B5104B9A4205D90F4B104A10486A21DA
:10BDD00000F094F8B1FBF2F115290E4B0AD9B1F538
:10BDE000706F09D80024E2B2013453F83250A942EE
:10BDF000F9D802E0002200E0312203EBC2039B8865
:10BE0000838038BD801A060039E4FF1F29E4FF1F34
:10BE10004CE4FF1F3CE5FF1F10B521B9104B114A40
:10BE200011483E210EE0038923F080031B041B0C04
:10BE30000381FFF7B9FF0A7A130605D50B4B0C4AAD
:10BE40000C48932100F05AF803889BB223F0FE03BC
:10BE500043EA4203038006C9BDE81040FFF7B0BFC4
:10BE600072E2FF1F20E4FF1F4CE4FF1F90E4FF1F5E
:10BE7000CCE6FF1FA4E4FF1F038921B123F00803D0
:10BE80001B041B0C02E09BB243F0080303817047C4
:10BE9000032910B505D9074B074A08483D2100F092
:10BEA0002DF84FF40003CB40046A2342FCD040F845
:10BEB000212010BDFCE6FF1FE0E6FF1F13E7FF1F78
:10BEC000032910B505D90A4B0A4A0B484C2100F04A
:10BED00015F8046A4FF00063CB4023421FBF0431C2
:10BEE00050F821301360002008BF022010BD00BFB1
:10BEF00056E7FF1FEBE6FF1F13E7FF1F1FB51C46AA
:10BF0000094B1B680546D86812B9084B1A4600E071
:10BF1000074B02928DE80A0022462B46054900F0A5
:10BF20001FF800F0E9FC00BF04020020F7DDFF1F4E
:10BF30006DE7FF1F7AE7FF1F08B5074B044613B1F3
:10BF40000021AFF30080054B1868836A03B198475E
:10BF5000204601F05FFE00BF00000000ACE7FF1FBD
:10BF60000EB403B5014603AB054853F8042B006833
:10BF7000019300F06BF802B05DF804EB03B070477A
:10BF80000402002070B50E4B0E4CE41AA4100025DC
:10BF90001E46A54204D056F8253098470135F8E7EB
:10BFA00002F0DEFC084C094BE41AA41000251E46E2
:10BFB000A54204D056F8253098470135F8E770BD02
:10BFC00080E9FF1F80E9FF1F84E9FF1F80E9FF1F51
:10BFD00010B5431E0A44914204D011F8014B03F8F6
:10BFE000014FF8E710BD02440346934202D003F824
:10BFF000011BFAE770479368013B002B10B4936074
:10C0000009DA9469A34202DBCBB20A2B03D15DF8B3
:10C01000044B00F09DBB1368581C10601970C8B227
:10C020005DF8044B7047F8B506460F461446D51820
:10C03000AC4208D03A4614F8011B3046FFF7DBFF4C
:10C04000431CF5D100E00020F8BD00002DE9F04FC1
:10C050009DB00C4617460393064618B183690BB989
:10C0600000F054FD7F4B9C4201D1746808E07E4B88
:10C070009C4201D1B46803E07C4B9C4208BFF46849
:10C08000A38918070CD5236953B1002309932023F2
:10C090008DF8293030238DF82A30DFF8D4B144E010
:10C0A0002146304600F0BAFB0028EED04FF0FF30BA
:10C0B000D5E0039A111D12680391002A80F28C804A
:10C0C000524243F002000792049098F800302E2B61
:10C0D00000F08480032298F800106548FCF748F9C6
:10C0E00048B14023CBEB000003FA00F0049B184357
:10C0F000049008F1010898F800105E488DF82810A7
:10C10000062208F10107FCF733F9002800F09580BA
:10C11000594B002B40F08880039B073323F0070323
:10C1200008330393099B53440993B846454615F8D1
:10C13000013B1BB9B8EB07090FD003E0252BF9D061
:10C14000A846F3E74B463A4621463046FFF76BFFD9
:10C1500001307FD0099B4B44099398F80030002BA5
:10C1600078D000234FF0FF32049307930592069393
:10C170008DF853301A930127052229783F48FCF7A0
:10C18000F7F805F10108049B38B13C4A801A07FA18
:10C1900000F0184304904546EEE7D90644BF20223C
:10C1A0008DF853201A0744BF2B228DF853202A788C
:10C1B0002A2A3FF47EAF079A00210A20A8460135BB
:10C1C00098F80030303B092B03D800FB02320121E4
:10C1D000F4E700293FF479AF079276E798F8013049
:10C1E0002A2B0BD1039B1A1D1B680392002BB8BF8F
:10C1F0004FF0FF3308F1020805936BE70023059326
:10C2000008F1010019460A258046013098F80020FF
:10C21000303A092A03D805FB01210123F4E7002B5A
:10C220003FF458AF059155E703AB00932246144BFA
:10C2300004A93046AFF3008007E003AB0093224629
:10C240000F4B04A9304600F093F8B0F1FF3F82464F
:10C250007FF468AFA3895B063FF528AF09981DB04E
:10C26000BDE8F08FE4E7FF1F04E8FF1F24E8FF1F8D
:10C27000B6E7FF1FBAE7FF1F00000000B0E7FF1F8F
:10C2800027C0FF1F2DE9F04791461F460A698B68BA
:10C29000DDF820809342B8BF1346C9F8003091F80A
:10C2A000432006460C4612B10133C9F8003023681A
:10C2B000990642BFD9F800300233C9F8003025682A
:10C2C00015F0060510D104F1190A07E001235246C2
:10C2D00039463046C04701301AD00135E368D9F8F5
:10C2E00000209B1A9D42F1DB94F843302268003312
:10C2F00018BF012392060FD5E1185A1C302081F88F
:10C300004300224494F8451082F84310023303E0BE
:10C310004FF0FF30BDE8F08704F143023946304664
:10C32000C0470130F4D02268D9F80050E36802F029
:10C330000602042A08BF5D1B2269A3680CBF25EA18
:10C34000E57500259342C4BF9B1AED184FF0000914
:10C350001A344D4509D00123224639463046C0479C
:10C360000130D5D009F10109F3E70020BDE8F087DD
:10C370002DE9F04317460A7E85B06E2A9846064698
:10C380000C460C9B01F1430E00F0AE8011D8632ADD
:10C3900022D009D8002A00F0BB80582A40F0CA8079
:10C3A00081F84520834955E0642A1ED0692A1CD0B3
:10C3B000C0E0732A00F0B08009D86F2A2ED0702A0E
:10C3C00040F0B8800A6842F020020A603EE0752A18
:10C3D00024D0782A3AD0ADE01A6801F14205111D47
:10C3E0001960136884F84230A8E021681A6811F0D7
:10C3F000800F02D0111D196008E011F0400F02F10A
:10C400000401196002D0B2F9003000E01368002B7B
:10C410003CDA2D225B4284F8432037E021681A6819
:10C4200011F0800F02D0111D196007E011F0400FCC
:10C4300002F10401196001D0138800E01368227E24
:10C440005C496F2A14BF0A2208221BE078225A494D
:10C4500084F845202268186812F0800F00F1040566
:10C460001D6003D1550601D5038800E00368D0079D
:10C4700044BF42F0200222601BB9226822F0200251
:10C4800022601022002084F8430001E049490A227A
:10C490006568A560002D08DB206820F0040020609E
:10C4A0002BB9002D7DD175460CE0002B79D0754657
:10C4B000B3FBF2F002FB1033CB5C05F8013D034601
:10C4C0000028F5D1082A0BD12368DA0708D523699B
:10C4D00062689A42DEBF302305F8013C05F1FF3562
:10C4E000C5EB0E0323612EE008681A68496910F055
:10C4F000800F03D0101D1860136808E010F0400F83
:10C5000002F104001860136801D0198000E019607E
:10C5100000232361754616E01A68111D196015681D
:10C52000626800212846FBF723FF08B1401B6060CA
:10C53000636804E004F1420584F84220012323618A
:10C54000002384F84330CDF800803B4603AA2146FF
:10C550003046FFF797FE013002D14FF0FF3026E062
:10C5600023692A4639463046C0470130F5D0236852
:10C570009B0710D5002504F1190907E001234A465D
:10C5800039463046C0470130E7D00135E368039AA9
:10C590009B1A9D42F2DBE068039B9842B8BF1846A5
:10C5A00005E00B7884F8423004F142058AE705B0D3
:10C5B000BDE8F083C1E7FF1FD2E7FF1F0CB430B521
:10C5C000164B0C1E9DB01D6804DA8B232B604FF0B8
:10C5D000FF301EE04FF40273ADF8143014BF04F1C5
:10C5E000FF332346049307934FF6FF7302900690A0
:10C5F000ADF81630209A21AB02A92846019300F02D
:10C60000C9FC431CBCBF8B232B6014B1029B0022CE
:10C610001A701DB0BDE8304002B07047040200201F
:10C620000EB430B59CB01FAC4FF4017254F8045BEB
:10C63000ADF8142002900690FBF78CFE0B4B039094
:10C6400007900B930A48019400230F9314934FF61D
:10C65000FF73ADF816302A46234602A9006800F0A1
:10C66000E9FD1CB0BDE8304003B0704797C6FF1F1E
:10C670000402002010B50C46B1F90E1001F084F848
:10C680000028ABBF636DA3891B1823F48053ACBF94
:10C690006365A38110BD002070472DE9F0411F465E
:10C6A0008B89DB0505460C46164605D5022300227C
:10C6B000B1F90E1000F0B4FAA389B4F90E1023F406
:10C6C0008053A38132463B462846BDE8F04100F046
:10C6D00093B810B50C46B1F90E1000F0A1FA431C46
:10C6E000A38915BF606523F4805343F48053A3816D
:10C6F00018BFA38110BDB1F90E1000F005B930B517
:10C7000082B1451E013915F8013F11F8014FA342CE
:10C7100006D1EC431444E04201D0002BF3D11C4677
:10C72000181B30BD104630BD10B5034642B111F89C
:10C73000014B03F8014B013A002CF7D11A4400E0F9
:10C7400010BD934202D003F8014BFAE710BD000080
:10C75000F8B50F461446064618B183690BB900F0C8
:10C76000D5F9224B9C4201D1746808E0204B9C42D1
:10C7700001D1B46803E01F4B9C4208BFF468A36971
:10C78000A360A3891A0709D523693BB123682069EF
:10C79000181A63699842FDB20FDB08E02146304663
:10C7A00000F03CF80028F1D04FF0FF30F8BD2146F2
:10C7B000304600F041F90028F6D1A368013BA360A0
:10C7C00023685A1C22601F706269431C934204D084
:10C7D000A389DB0707D50A2D05D12146304600F095
:10C7E0002BF90028E0D12846F8BD00BFE4E7FF1F81
:10C7F00004E8FF1F24E8FF1F38B5074C054608462C
:10C800001146002222601A46FEF714FD431C02D195
:10C81000236803B12B6038BD08560020324B70B539
:10C820001D6806460C4625B1AB6913B9284600F0D1
:10C830006DF92E4B9C4201D16C6808E02C4B9C4258
:10C8400001D1AC6803E02B4B9C4208BFEC68B4F903
:10C850000C309AB215071DD4D00602D409223260DA
:10C860003AE0510712D5616B41B104F1440399429A
:10C8700002D0304600F062FA00236363A38923F0FC
:10C880002403A3810023636023692360A38943F009
:10C890000803A38123694BB9A38903F42073B3F57B
:10C8A000007F03D02146304600F0F0F9A28912F053
:10C8B000010305D00023A36063695B42A36103E029
:10C8C000920758BF6369A36023695BB9B4F90C3060
:10C8D00003F0800080B230B143F04003A3814FF0F9
:10C8E000FF3070BD002070BD04020020E4E7FF1F90
:10C8F00004E8FF1F24E8FF1F08B5062000F0C2FF70
:10C90000012001F087F9000038B5064C00230546E8
:10C910000846236001F040F9431C02D1236803B1AB
:10C920002B6038BD085600208A892DE9F041054664
:10C9300010070C4659D44B68002B02DC0B6C002B03
:10C9400017DDE66AAEB102F48052002392B22F687E
:10C950002B600AB1606D15E0216A01232846B047BB
:10C96000411C0FD12B686BB11D2B01D0162B03D1AD
:10C970002F600020BDE8F081A38943F04003A3812C
:10C98000BDE8F081A3895A0705D56368C01A636BB7
:10C990000BB1236CC01A00230246E66A216A2846BE
:10C9A000B047431CA38906D129681D293AD8214ADA
:10C9B000CA40D60736D500226260D90422692260B7
:10C9C00004D5421C01D12B6803B96065616B2F60EF
:10C9D0000029CED004F14403994202D0284600F049
:10C9E000ADF900206063BDE8F0810F69002FC0D071
:10C9F00093070E6808BF4B690F6018BF0023C7EB91
:10CA000006088B6002E00744C0EB0808B8F1000F8D
:10CA1000AFDD43463A46216AA66A2846B047002859
:10CA2000F1DCA38943F04003A3814FF0FF30BDE860
:10CA3000F08100BF0100402038B50B6905460C4667
:10CA4000DBB118B183690BB900F060F80C4B9C4264
:10CA500001D16C6808E00B4B9C4201D1AC6803E04B
:10CA6000094B9C4208BFEC68B4F90C302BB121464D
:10CA70002846BDE83840FFF757BF002038BD00BF4B
:10CA8000E4E7FF1F04E8FF1F24E8FF1F014900F04F
:10CA9000A9B800BF39CAFF1F002310B504460360C0
:10CAA0004360836081814366C28103614361836126
:10CAB000194608225C30FFF796FA054B6362054B76
:10CAC000A362054BE362054B2462236310BD00BFE4
:10CAD00075C6FF1F9BC6FF1FD3C6FF1FF7C6FF1FEC
:10CAE00070B568234D1E5D430E4605F1740100F0DC
:10CAF00073F9044640B1002180E842000C30A06088
:10CB000005F16802FFF76FFA204670BD836910B522
:10CB1000044633BB8364C3640365124B124A1B682B
:10CB20008262984204BF0123836100F01FF86060B5
:10CB3000204600F01BF8A060204600F017F8002205
:10CB4000E06004216068FFF7A7FF01220921A068C7
:10CB5000FFF7A2FF02221221E068FFF79DFF0123E9
:10CB6000A36110BDACE7FF1F8DCAFF1FF8B51C4BBA
:10CB70001E68B369074613B93046FFF7C7FF48364A
:10CB8000B4687368013B04D4B4F90C507DB16834C7
:10CB9000F8E733680BB13668F2E704213846FFF74F
:10CBA0009FFF30600028F6D10C233B60F8BD4FF6A4
:10CBB000FF73E3810123A38165662560A56065603D
:10CBC00025616561A5610822294604F15C00FFF733
:10CBD0000AFA6563A563A564E5642046F8BD00BF55
:10CBE000ACE7FF1F2DE9F8438046894600F1480471
:10CBF000002694B1A5686768013F0CD4AB89012B6E
:10CC000007D9B5F90E30013303D029464046C8474D
:10CC100006436835F0E72468EBE73046BDE8F88363
:10CC200038B5074C054608461146002222601A46D0
:10CC300000F0DAFF431C02D1236803B12B6038BD3A
:10CC40000856002070B50E46B1F90E10002990B0BC
:10CC500014461D4606DA00232B60B3891A060ED54A
:10CC600040230EE001AA00F069FF0028F3DB029ADE
:10CC700002F47042A2F500535A425A412A604FF41E
:10CC800080630020236010B070BD00008B8973B5F5
:10CC90009E0705460C4610D401AB6A46FFF7D2FF4B
:10CCA00000990646284600F097F868B9B4F90C30A8
:10CCB0009A0522D443F00203A38104F147032360C1
:10CCC00023610123636118E00D4BAB62A3892060EF
:10CCD00043F08003A381009B6361019B20614BB102
:10CCE000B4F90E10284600F03BFF18B1A38943F0B9
:10CCF0000103A381A0893043A08102B070BD00BFB1
:10CD00008DCAFF1F884210B501EB020301D8421EF5
:10CD10000BE09842FBD28118D21AD34204D013F808
:10CD2000014D01F8014DF8E710BD994204D011F80A
:10CD3000014B02F8014FF8E710BD000038B5054679
:10CD4000002946D051F8043C0C1F002BB8BFE41852
:10CD500000F016FF1F4A1368114613B96360146090
:10CD600032E0A3420ED92268A018834204BF18689B
:10CD70005B68636004BF121822600C6024E0A2426A
:10CD800003D813465A68002AF9D118681918A14225
:10CD90000BD12168014458188242196014D11068DF
:10CDA00052685A60014419600EE002D90C232B60CE
:10CDB0000AE021686018824204BF1068526862600D
:10CDC00004BF091821605C602846BDE8384000F0C7
:10CDD000D8BE38BD0056002070B5CD1C25F0030527
:10CDE00008350C2D38BF0C25002D064601DBA94265
:10CDF00002D90C23336046E000F0C2FE234B1C68CE
:10CE00001A462146A1B10B685B1B0ED40B2B03D92C
:10CE10000B60CC18CD501EE08C420DBF63684B6890
:10CE20006360136018BF0C4615E00C464968E9E7DB
:10CE3000174C23681BB9304600F0B8FC2060294627
:10CE4000304600F0B3FC431C18D0C41C24F003048B
:10CE5000A0420DD12560304600F093FE04F10B0096
:10CE6000231D20F00700C31A0ED05A42E25070BDB5
:10CE7000211A304600F09AFC0130EBD10C233360CC
:10CE8000304600F07EFE002070BD00BF005600203E
:10CE9000FC550020F8B5074615460E4621B9114647
:10CEA000BDE8F840FFF798BF1AB9FFF747FF2846DB
:10CEB000F8BD00F067FE85420ED929463846FFF7D7
:10CEC0008BFF044650B131462A46FFF781F83146C0
:10CED0003846FFF733FF01E03046F8BD2046F8BD85
:10CEE0002DE9F0478E689E4282460C469146984650
:10CEF0003ED88A8912F4906F3AD0256809696F1A72
:10CF00006569022305EB450595FBF3F57B1C43445E
:10CF10009D4238BF1D4653050FD52946FFF75CFFDC
:10CF2000064698B13A462169FFF752F8A38923F4DF
:10CF3000906343F08003A38113E02A46FFF7AAFF22
:10CF4000064670B921695046FFF7F8FE0C23CAF86F
:10CF50000030A38943F04003A3814FF0FF30BDE8C8
:10CF6000F087266165613E44ED1B2660A56046465C
:10CF7000464528BF4646324649462068FFF7C2FE6E
:10CF8000A3689B1BA36023681E4426600020BDE8A5
:10CF9000F08700002DE9F04F9DB0804603938B8908
:10CFA0001C060D4616460DD50B695BB94021FFF7EF
:10CFB00013FF2860286118B90C23C8F80030CDE0B1
:10CFC00040236B610023099320238DF82930DFF87B
:10CFD0009CB130238DF82A3037463C4614F8013B8B
:10CFE0001BB9B7EB060910D003E0252BF9D0274673
:10CFF000F3E74B46324629464046FFF771FF0130C2
:10D0000000F0A780099B4B4409933B78002B00F06C
:10D01000A08000234FF0FF320493079305920693FC
:10D020008DF853301A930126052221784E48FBF7DC
:10D030009FF9671C049B38B14B4A801A06FA00F02E
:10D04000184304903C46EFE7D90644BF20228DF8F0
:10D0500053201A0744BF2B228DF8532022782A2A06
:10D0600003D0079A00210A200BE0039A111D1268D1
:10D070000391002A10DA524243F002000792049012
:10D080000BE0274601343B78303B092B03D800FBEB
:10D0900002320121F5E701B107923B782E2B1ED118
:10D0A0007B782A2B0AD1039B1A1D1B680392002B45
:10D0B000B8BF4FF0FF330237059310E0002305930C
:10D0C000781C19460A24074601303A78303A092A72
:10D0D00003D804FB01210123F5E703B105910322E5
:10D0E00039782248FBF744F940B14023CBEB0000EC
:10D0F00003FA00F0049B18430490013739781C4868
:10D100008DF8281006227E1CFBF732F988B1194BE6
:10D1100033B9039B073323F007030833039314E069
:10D1200003AB00932A46144B04A94046AFF300809A
:10D1300007E003AB00932A460F4B04A94046FFF7D4
:10D1400017F9B0F1FF3F824603D0099B534409937E
:10D1500042E7AB895B0601D4099801E04FF0FF304C
:10D160001DB0BDE8F08F00BFB0E7FF1FB6E7FF1F9F
:10D17000BAE7FF1F00000000E1CEFF1F4B1C70B597
:10D180000E46144602D14FF0FF3070BD938923F054
:10D1900020039381536B5268CDB283B1A36B9A4243
:10D1A00007DA23685A1E226003F8016C63680133B2
:10D1B0001FE0214600F086FC0028F2D0E3E7216959
:10D1C000236851B1994208D213F8011C8D4204D151
:10D1D000013B0132236062600CE0E36304F144032D
:10D1E00063630323A3632346226403F8466F23602B
:10D1F00001236360284670BD10B50C46496B69B1C8
:10D2000004F14403994201D0FFF798FD236C636059
:10D210000020606313B1E36B236010BD23692360BA
:10D2200000236360A38943F02003A3814FF0FF3004
:10D2300010BD00002DE9F04FADF5257DDFF8989287
:10D2400001930023469347939F4BA2930DF10C0843
:10D250009E4BDFF87CB2CDF8208107460D46A393A4
:10D26000CA461478002C00F02781D9F800302344F6
:10D270005B7803F0080303F0FF01F3B16B68002B48
:10D2800010DD2B68DAF800001978014449780C07A2
:10D2900010D54799013147916968013301396960B7
:10D2A0002B60EBE7A39B0092294638469847009AEB
:10D2B0000028E6D0561C3246D3E7252C02F10106A1
:10D2C00052D14391459153782A2B02BF1023961CCB
:10D2D00043930A223178A1F13003092B344606F139
:10D2E000010605D8459B02FB0313303B4593F1E74C
:10D2F00003227748FBF73CF840B10123CBEB000059
:10D3000003FA00F0439B034343933446661C24789E
:10D31000672C16D8652C7FD2472C07D8452C7BD29A
:10D32000002C00F0CB80252C1ED077E05B2C51D058
:10D3300002D8582C3ED071E0632C57D0642C3FD0DB
:10D340006CE0702C32D007D86E2C55D03AD8692CAE
:10D3500064D1002344933BE0752C31D0782C29D044
:10D36000732C5BD102233FE06B68002B0DDD2B6833
:10D370001A78944240F0A08001336A682B60479B82
:10D38000013A01336A60479395E7A39B29463846E3
:10D3900098470028EBD04698002800F08F80AB8992
:10D3A00013F0400F18BF4FF0FF3089E0439B43F06C
:10D3B00020034393439B43F400734393102302E001
:10D3C0000A2300E008236E2C449301DD04230BE0C4
:10D3D000032309E03146404600F0F8F9439B43F04F
:10D3E000400343930646012349931BE0439B43F0CC
:10D3F000400343930023F7E7439AD0063FF55BAF22
:10D4000012F0010F019A479B02F104010191126889
:10D4100014BF138013604EE70523E5E70323499308
:10D420000A2344936B68002B03DD439B590611D5F7
:10D4300018E0A39B2946384698470028F5D0AAE76C
:10D44000479A013247926A68013A002A6A6013DDFE
:10D4500001332B602B68DAF800101A780A445278EE
:10D460001207EDD4499B022B0DDC01AB2A4643A9E0
:10D47000384600F033F819E0A39B29463846984710
:10D480000028E7D087E7042B06DC01AB2A4643A936
:10D49000384600F087F809E00E4B002B3FF40BAF45
:10D4A00001AB2A4643A93846AFF30080012803D0D8
:10D4B00002287FF400AF6EE7469801E04FF0FF309E
:10D4C0000DF5257DBDE8F08F7DD1FF1FF9D1FF1F40
:10D4D000B6E7FF1F00000000080200202DE9F84316
:10D4E00015468A6880460C4632B98A69002A0CBF04
:10D4F00001224FF0FF328A602268DFF8A490D10643
:10D500005FBF1A68111D196017680026A06900BB6B
:10D510002368DA065EBF2B681B783B702A686B684D
:10D5200002F101022A60A26803F1FF3302F1FF3227
:10D530006B6006F1010658BF0137A260E2B1002B13
:10D54000E4DCD4F880312946404698470028DDD0F5
:10D5500012E0012806D12B681A7863699B5C002BC6
:10D56000D6D119E0022807D12B68D9F800201B7802
:10D5700013445B781B07CBD5236813F0100305D148
:10D58000E2680132E260A26902B13B7023691E4485
:10D5900026610020BDE8F883002EEDD1BDE8F883B8
:10D5A000080200202DE9F04F9A46734B0C46834643
:10D5B000164693E8070087B003ABA76883E8070027
:10D5C0006E4BA1696E4A032918BF1A467B1EB3F53C
:10D5D000AE7F84BF40F25D13A3602368009243F4E2
:10D5E000506388BF6FF4AE7504F11C0923608CBFD3
:10D5F0007F1900274B464FF000080193316803ABB9
:10D60000022253F828000978FAF7B2FE019B00289D
:10D6100033D0B8F1010F0BD162682AB908226260D9
:10D62000226842F400722260226822F4A0620CE0B8
:10D63000B8F1020F0AD1226802F4C061B1F5007F8F
:10D640001BD11021616042F480722260A268511ED9
:10D65000A16092B13268511C316012781A705D1C61
:10D660007368013B002B736006DCD4F880313146CF
:10D6700058469847002840D12B4608F10108B8F1D8
:10D68000030FBAD162680AB90A22626062683D4932
:10D6900060690193891A00F099F8019B4FF0000826
:10D6A0001D46A3685BB3316860690A78805C30B35B
:10D6B000302A226808D1100506D508F101084FB1BB
:10D6C0000133013FA36005E022F4106222600B7871
:10D6D0002B7001357368013B002B736003DD3368E9
:10D6E0000133336005E0D4F880313146584698471D
:10D6F00028B9A368013BA360D3E74FF00008236873
:10D70000D9050CD54D4508D915F8011CD4F87C3144
:10D710003246584698476F1E3D464D4527D02268F1
:10D7200012F010021BD12A706368009E49465846C9
:10D73000B0472268DAF8003012F0200F07D1D20784
:10D7400005D51A1DCAF800201B68188004E01A1DB0
:10D75000CAF800201B681860E3680133E36023699E
:10D76000C9EB050545441D442561002000E001206A
:10D7700007B0BDE8F08F00BF18DCFF1FC9D9FF1F3D
:10D78000BDD8FF1F54E8FF1F38B5074C05460846B3
:10D790001146002222601A46FDF760FD431C02D1AB
:10D7A000236803B12B6038BD0856002038B5064CFD
:10D7B000002305460846236000F01EFA431C02D1F0
:10D7C000236803B12B6038BD0856002070B50B7874
:10D7D0005E2B13BF4A1C8A1C4B78002108BF012115
:10D7E000441E00F1FF0504F8011FAC42FBD10BB948
:10D7F000501E70BD81F00104C45411460D782D2DCA
:10D8000001F1010206D05D2D0FD00DB12B46F3E7DB
:10D81000084670BD4E785D2EF8D0B342F6DC02317A
:10D8200001339E42C454FBDCE8E7104670BD1F295B
:10D8300038B504460D4604D9162303604FF0FF3077
:10D8400038BD426C12B152F821304BB9204600F07D
:10D8500033F82A4601462046BDE8384000F01AB8A1
:10D86000012B0CD0591C03D116230360012038BDB5
:10D870000024284642F825409847204638BD00201D
:10D8800038BD0000024B01461868FFF7D0BF00BF4B
:10D890000402002038B5074C00230546084611460F
:10D8A000236000F099F9431C02D1236803B12B6077
:10D8B00038BD00BF0856002000F07EB92DE9F047C2
:10D8C00080464048D0F800900F463D4615F8014B81
:10D8D00009EB0400407800F0080000F0FF0608B1F2
:10D8E0002F46F2E72D2C03D1BD1C7C78012603E0E6
:10D8F0002B2C04BF7C78BD1C13B1102B0AD15BE02C
:10D90000302C57D1287800F0DF0058284DD16C78A2
:10D9100010230235002E14BF4FF0004C6FF0004C66
:10D920000027BCFBF3FA384603FB1ACC09EB040EC4
:10D930009EF801E01EF0040F01D0303C0BE01EF019
:10D94000030E1BD0BEF1010F0CBF4FF0370E4FF08E
:10D95000570ECEEB0404A34210DDB7F1FF3F0AD00F
:10D96000504506D801D1644503DC03FB0040012784
:10D9700001E04FF0FF3715F8014BD7E77B1C0CD1C6
:10D98000002E4FF0220314BF4FF000406FF0004014
:10D99000C8F800302AB9BDE8F08706B1404272B13C
:10D9A00007B1691E1160BDE8F0873024002BB1D1AA
:10D9B0000823AFE70A23ADE7302CA3D0AAE7BDE8E0
:10D9C000F08700BF080200202DE9F04780463C4860
:10D9D000D0F800900E46354615F8014B09EB0400CF
:10D9E000407800F0080000F0FF0708B12E46F2E78B
:10D9F0002D2C03D1B51C7478012703E02B2C04BF18
:10DA00007478B51C13B1102B0AD153E0302C4FD1D0
:10DA1000287800F0DF00582845D16C7810230235B3
:10DA20004FF0FF3C0026BCFBF3FC03FB0CFA6FEA53
:10DA30000A0A304609EB040E9EF801E01EF0040FBE
:10DA400001D0303C0BE01EF0030E1AD0BEF1010FE6
:10DA50000CBF4FF0370E4FF0570ECEEB0404A3422D
:10DA60000FDD002E08DB604506D801D1544503DCEC
:10DA700003FB0040012601E04FF0FF3615F8014B93
:10DA8000D8E7002E07DA2223C8F800304FF0FF3025
:10DA90002AB9BDE8F08707B1404272B106B1691EEC
:10DAA0001160BDE8F0873024002BB9D10823B7E717
:10DAB0000A23B5E7302CABD0B2E7BDE8F08700BF52
:10DAC000080200202DE9F0410C46496B04F14403A3
:10DAD00099421CD14FF48061FFF77EF918B94FF0DD
